:020000040800F2
:1000000078050020CD010008D50B00085D0500082B
:10001000D30B000815030008B1170008000000000A
:100020000000000000000000000000006F12000847
:100030001703000800000000310F0008A913000892
:10004000E7010008E7010008E7010008E7010008F0
:10005000E7010008E7010008E7010008E7010008E0
:10006000E7010008E7010008E7010008E7010008D0
:10007000E7010008E7010008E7010008E7010008C0
:10008000E7010008E7010008E7010008E7010008B0
:10009000E7010008E7010008E70100085D03000828
:1000A000E7010008E7010008E7010008E701000890
:1000B00065140008E7010008E7010008E7010008EF
:1000C000E7010008E7010008E7010008E701000870
:1000D000E7010008E7010008F9150008E70100083A
:1000E000E7010008E7010008E7010008E701000850
:1000F000E7010008E7010008E7010008E701000840
:10010000E7010008E7010008E7010008E70100082F
:10011000E7010008E7010008E7010008E70100081F
:10012000E7010008E7010008E7010008E70100080F
:1001300000F002F800F03AF80AA090E8000C8244BF
:100140008344AAF10107DA4501D100F02FF8AFF29C
:10015000090EBAE80F0013F0010F18BFFB1A43F0A5
:1001600001031847FC2F00001C300000103A24BF88
:1001700078C878C1FAD8520724BF30C830C144BF0C
:1001800004680C607047000000230024002500264E
:10019000103A28BF78C1FBD8520728BF30C148BFEA
:1001A0000B6070471FB51FBD10B510BD00F06CF897
:1001B0001146FFF7F7FF01F0A1FC00F09EF803B431
:1001C000FFF7F2FF03BC01F0F4FA00000948804792
:1001D00009480047FEE7FEE7FEE7FEE7FEE7FEE729
:1001E000FEE7FEE7FEE7FEE704480549034A054B44
:1001F00070470000AD1300083101000878010020AD
:100200007805002078010020704700000FB40449F1
:1002100010B503AA029800F009F810BC5DF814FBB1
:10022000200000207047704770477047074B70B53B
:100230000D467B4400F011F80446284600F020F8F3
:1002400010B14FF0FF3070BD204670BDAF180000F8
:1002500001694A1C02610878704700B58FB0CDE98A
:1002600001310021059105497944CDE9031011467A
:10027000684600F02EF80FB000BD0000E5FFFFFF5C
:10028000007B00F080007047754600F03FF8AE46F6
:1002900005006946534620F00700854618B020B592
:1002A000FFF7A2FFBDE820404FF000064FF0000727
:1002B0004FF000084FF0000B21F00701AC46ACE80E
:1002C000C009ACE8C009ACE8C009ACE8C0098D467B
:1002D00070472DE9F04106460024D6E90170F56823
:1002E0008046304603E04146B847641C3046A84784
:1002F0000028F8D12046BDE8F08110B50446AFF3E0
:1003000000802046BDE81040FFF759BF0048704705
:1003100014010020FEE770473EB50821002000F0E0
:100320008DF84FF48070002500908DF8045008205F
:100330008DF8050001248DF80640684600F046F867
:1003400017208DF8080002208DF809008DF80A505A
:100350008DF80B4002A800F03FFC3EBD10B54FF4F5
:100360008074204600F022F801280DD1094A0020AF
:10037000C2F88C010121C2F88C110748C0F88C1119
:1003800006480178491C01702046BDE8104000F085
:1003900007B800000000244200802142180000201D
:1003A000014908607047000014040140064A0146F4
:1003B00000201268044B0A4014331B680B4202D021
:1003C000002A00D0012070470004014030B51A4ACD
:1003D0008379016853B313688B431360111D0B6855
:1003E0000468A3430B60017911440B68046823433C
:1003F0000B60114B083319680468A14319601C1D78
:1004000021680568A94321604179102905D011446C
:100410000A68006802430A6030BD19680268114327
:100420001960216800680143216030BD00791044E3
:1004300002688A43026030BD0004014010B58A079B
:1004400021F003040649120F21440F238C689340C6
:100450009C438C608B68904003438B6010BD000010
:1004600000000140F0B5CC78002204F00F03E40650
:1004700001D58C7823430C784FF00F0C14F0FF0F4C
:100480004FF0010E1BD005680E880EFA02F42640CC
:10049000A64210D196000CFA06F725EA070703FAE0
:1004A00006F5CE783D43282E02D0482E02D002E039
:1004B000446100E00461521C082AE5D305600A8803
:1004C000FF2A1CD94468002202F108060EFA06F53C
:1004D0000E882E40AE420ED196000CFA06F7BC43B1
:1004E00003FA06F7CE783C43282E00D14561CE783A
:1004F000482E00D10561521C082AE5D34460F0BDA6
:10050000F0B5144C002801DAE36900E06368450D9A
:100510002E0185B2C0F30157B540C0F30342032F4B
:1005200005D0C6020AD503269640B34307E023F060
:100530007062636823F07063636002E0AB4343F072
:10054000706201B12A43002801DAE261F0BD626005
:10055000F0BD00000000014001617047FEE70000AF
:10056000F0B5154E0546002470882146401E83B222
:100570003088401E82B2204600F002FA0F4F04205D
:1005800038603A1D4FF0080CC2F800C0B6F802E01F
:1005900036882B0A0A48022106FB0EF606E00360A5
:1005A00011603960056011603960641CA642F6D89C
:1005B000C7F800C0F0BD00003C000020101801404A
:1005C0000C14014030B500F09DF90A4B08241C6062
:1005D0000121181F0160042101600749074D0988A6
:1005E0000A0A2A6002221A60026029601A60026008
:1005F000046030BD141801401A0000200C140140A2
:1006000030B5094B08241C600122191F0A6004221E
:100610000A60064D020A2A6002221A600A602860F7
:100620001A600A600C6030BD141801400C140140BF
:1006300038B50121612000F089FC01211148FFF744
:100640005FFF1F20ADF8000010208DF8030003208D
:100650000D4C8DF8020069462046FFF703FF0F217D
:100660002046FFF779FFFF20084CADF800006946EF
:100670002046FFF7F7FE4FF6FF712046FFF76CFFAD
:1006800038BD000000023000001801400014014095
:1006900010B5FFF7CDFF00F023F9F92000F078FA4C
:1006A000002000F063FA082000F060FAC02000F09B
:1006B0006FFA192000F05AFA1A2000F057FAC120F8
:1006C00000F066FA452000F051FA002000F04EFAE2
:1006D000C22000F05DFA332000F048FAC52000F097
:1006E00057FA002000F042FA282000F03FFAB1202B
:1006F00000F04EFA902000F039FA112000F036FA9E
:10070000B42000F045FA022000F030FAB62000F0E4
:100710003FFA002000F02AFA422000F027FA3B209E
:1007200000F024FAB72000F033FA072000F01EFA98
:10073000E02000F02DFA1F2000F018FA252000F02C
:1007400015FA222000F012FA0B2000F00FFA062012
:1007500000F00CFA0A2000F009FA4E2000F006FA28
:10076000C62000F003FA392000F000FA002000F063
:10077000FDF9002000F0FAF9002000F0F7F9002060
:1007800000F0F4F9002000F0F1F9002000F0EEF99B
:10079000E12000F0FDF91F2000F0E8F93F2000F013
:1007A000E5F93F2000F0E2F90F2000F0DFF91F200B
:1007B00000F0DCF90F2000F0D9F9462000F0D6F95E
:1007C000492000F0D3F9312000F0D0F9052000F0E5
:1007D000CDF9092000F0CAF9032000F0C7F91C2068
:1007E00000F0C4F91A2000F0C1F9002000F0BEF9B1
:1007F000F12000F0CDF9362000F0B8F9042000F027
:10080000B5F9002000F0B2F93C2000F0AFF90F205C
:1008100000F0ACF90F2000F0A9F9A42000F0A6F92F
:10082000022000F0A3F9F22000F0B2F9182000F045
:100830009DF9A32000F09AF9122000F097F9022008
:1008400000F094F9322000F091F9122000F08EF9B6
:10085000FF2000F08BF9322000F088F9002000F032
:1008600085F9F42000F094F9402000F07FF9002091
:1008700000F07CF9082000F079F9912000F076F979
:10088000042000F073F9F82000F082F9212000F034
:100890006DF9042000F06AF9362000F079F948205B
:1008A00000F064F93A2000F073F9552000F05EF989
:1008B000112000F06DF9782001F0E0F8292000F017
:1008C00067F900F047F805490120C1F8A801BDE823
:1008D00010404FF6FF70FFF743BE000000002242B9
:1008E00010B5074810240460642001F0C7F80448DC
:1008F000001F0460BDE81040322001F0BFB80000C6
:100900001418014070B5124E05460C46B07A00F03E
:100910003FF9280A00F02AF9E8B200F027F901208F
:1009200000F024F93F2000F021F9307B00F030F98D
:10093000200A00F01BF9E0B200F018F9012000F0E5
:1009400015F9DF2000F012F9BDE8704000F032B96F
:100950003C00002009482A2141812B2181812C2142
:100960000181012181714FF4F07101804FF4A07178
:100970004180A821362000F023B900003C0000206F
:100980002DE9F041DFF8508007461C4615460E461B
:1009900098F80A0000F0FCF8380A00F0E7F8F8B21E
:1009A00000F0E4F8280A00F0E1F8E8B200F0DEF820
:1009B00098F80C0000F0ECF8300A00F0D7F8F0B22C
:1009C00000F0D4F8200A00F0D1F8E0B200F0CEF840
:1009D000BDE8F04100F0EEB83C0000202DE9FF4FEB
:1009E00081B00EAE824696E83100203800F0FF0854
:1009F0000298DFF8E0B02044401E83B20AEB5400B6
:100A0000BBF80010401E009182B250460299FFF7D9
:100A1000B7FF4FF000067DBB2F4908EB480001EB04
:100A2000800901F2744000EB081817E00C2C03D089
:100A300018F8065000270CE019F80650FAE7E80706
:100A400001D0039800E00498FFF7DAFD6D087F1CE1
:100A5000FFB2B7EB540FF2D3761CF6B2A642E5D341
:100A600027E00C2C09D01D4800EB08100025875DFD
:100A7000029800EB060915E019E0174808EB480159
:100A800000EB8100F2E70398ABF80000F80706D00E
:100A90000AEB05001FFA89F180B2FFF793FD7F088A
:100AA0006D1CEDB2B5EB540FEDD3761CF6B2A64239
:100AB000D7D30098ABF8000009484188008805B0FA
:100AC000491EBDE8F04F401E8BB282B2002108469D
:100AD000FFF756BF1A000020D01C00084421000870
:100AE0003C0000202DE9FF4F83B00027DDF8408057
:100AF0001D4681463C46BA464FEA5806DFF864B0C8
:100B00002AE0281B401EC1B20A2001F031F80599E5
:100B1000B1FBF0F00A21B0FBF1F201FB120027B9A2
:100B2000691E8C4201DA40B101273030C0B28DE835
:100B3000010506FB049080B205E0202206FB04902C
:100B40008DE8040580B20849BBF800300A88049992
:100B5000FFF744FF641CE4B2AC42D2D307B0BDE857
:100B6000F08F00001C0000201A000020064910B57C
:100B700004220A6008220B1D1A60044C2060022027
:100B8000186008600A6010BD101801400C14014084
:100B9000064904220A6008220A60054B18600220F8
:100BA0000860091F08600A607047000014180140BF
:100BB0000C1401400148007AFFF7EABF3C00002016
:100BC00010B50C46FFF7E4FF2046BDE81040FFF7E4
:100BD000CDBFFEE77047000030B50F23C278017823
:100BE0000125F2B1144A126801F1E02102F4E06239
:100BF000C2F5E062120AC2F10404D3404278A24076
:100C000084781C401443220181F80024007800F00D
:100C10001F018D404009800000F1E020C0F8005124
:100C200030BD01F01F0085404809800000F1E02040
:100C3000C0F8805130BD00000CED00E002490843CF
:100C400002490860704700000000FA050CED00E062
:100C5000002130B1012806D0032806D0042807D18E
:100C600005E0B02104E0982102E0182100E03021E5
:100C7000552000F0DDBA70B5802622255E2430B103
:100C8000012808D003280AD004280FD10BE0402601
:100C900011252F240AE066261B254B2406E0992601
:100CA0002825712402E0C02633258D2431464F20AB
:100CB00000F0BEFA3146502000F0BAFA002151206F
:100CC00000F0B6FA2946522000F0B2FA214653202D
:100CD00000F0AEFA3146542000F0AAFABDE87040A8
:100CE0009E21582000F0A4BA402130B1012806D03E
:100CF000032806D0042807D105E0302104E038217C
:100D000002E0502100E06021562000F091BA00007E
:100D1000F8B50024012140F27D1000F017F94FF4DE
:100D20008075ADF8005048268DF803600320354FDC
:100D30008DF8020069463846FFF794FB294638468D
:100D4000FFF70AFC1820ADF800002F4F10258DF892
:100D5000035069463846FFF785FB18213846FFF7F0
:100D6000FBFB4FF47F40ADF800008DF8036069464F
:100D70002648FFF777FB0820ADF80000244F8DF8D8
:100D8000035069463846FFF76DFB08213846FFF7E8
:100D9000E3FB4FF44046ADF800608DF80350694620
:100DA0003846FFF75FFB31463846FFF7D5FB012198
:100DB0001848FFF7A5FB00F01FF98021122000F072
:100DC00037FA08B10120F8BD322000F057FE0B20A1
:100DD00000F096F9732804D10A2000F091F97628E2
:100DE00001D00220F8BD0C4D05EB4400417815F808
:100DF000140000F01DFA641CA4B2A82CF4D3002047
:100E0000F8BD000000080140000C0140001801403E
:100E10000020014000023000801B000870B5002552
:100E2000E7212C46012806D0022808D003280AD042
:100E300004280FD10BE0E5215A255C240AE0E521C6
:100E40005825602406E0E52184254C2402E0E521B4
:100E500096254024132000F0EBF92946012000F0EC
:100E6000E7F92146BDE87040022000F0E1B970B515
:100E70000421C0248025072816D2DFE800F01504DD
:100E800006090B0E1200242100E0142180240BE03F
:100E9000142109E01421402405E014218024C025F8
:100EA00002E01421A02440253A2000F0C1F9214697
:100EB000682000F0BDF92946BDE87040672000F0C9
:100EC000B7B92DE9F041054600EB420086B201EBCF
:100ED000430084B20F46B4F5447F02D9A4F54474AC
:100EE000A4B2032000F00CF906F00302294600F03A
:100EF000F00062F39F010143032000F099F9C5F36C
:100F00008701192000F094F9C6F387011A2000F038
:100F10008FF9322000F0F4F8C7F3C701172000F072
:100F200087F9C4F3C701BDE8F041182000F080B98B
:100F300070470000044A0029D16901D0014300E054
:100F40008143D1617047000000100240044A00292B
:100F5000916901D0014300E0814391617047000035
:100F60000010024030B5204A5168204B11F00C01AE
:100F700003D0042901D0082901D0036012E0516890
:100F8000536801F470114FF0020413F4803F04EB36
:100F9000914102D053689B0301D5154B00E0134BE0
:100FA0005943016051680F2303EA1111114B5C5C36
:100FB0000168E14041605468072505EA14241C5D7E
:100FC00021FA04F48460546805EAD4241B5DD940F6
:100FD000C1605268032303EA9232064B1B1F9A5CDE
:100FE000B1FBF2F1016130BD0010024000127A0045
:100FF00000093D002C00002038B501214FF490700D
:10100000FFF7A4FF4FF40055ADF8005048208DF8CD
:1010100003000320104C8DF8020069462046FFF7BC
:1010200021FA29462046FFF797FA0420ADF8000080
:1010300010208DF8030069462046FFF713FA0421BB
:101040002046FFF789FA606820F4700060606068ED
:1010500040F44010606038BD0020014070B532207F
:1010600000F026FD0A4C0120C4F8B401C4F8880140
:10107000322004F5C47400F01BFD002525603220E9
:1010800000F016FDE562BDE87040322000F010BDB2
:10109000000024422DE9F047174F0024786820F41F
:1010A00070007860786840F400007860134E08257E
:1010B0004FF00108A146322000F0FAFCC6F8888102
:1010C0006006040ED6F8340108B1641CE4B2322084
:1010D00000F0EEFCC6F888916D1E15F0FF05EAD110
:1010E000786820F470007860786840F44010786088
:1010F0002046BDE8F08700000020014000002442A7
:1011000010B5044600F022F8422000F04DF86420AB
:1011100000F0CEFC204600F047F8642000F0C8FC48
:1011200000F02AF8642000F0C3FC00F00FF8432020
:1011300000F03AF8642000F0BBFCFFF7ABFF044678
:10114000FFF78CFF00F018F8204610BD70B5094C71
:101150000120C4F8B401C4F88801322004F5C47435
:1011600000F0A6FC0025E562322000F0A1FC25601D
:1011700070BD00000000244270B50A4C0020C4F885
:10118000B401322004F5C47400F092FC01252560FE
:10119000322000F08DFCE562BDE87040322000F0A6
:1011A00087BC0000000024422DE9F04100241E4EBF
:1011B0000546A0460127280602D5C6F8B47101E00D
:1011C000C6F8B4816806050E322000F071FCC6F83E
:1011D0008871322000F06CFCC6F88881641CE4B28F
:1011E000082CE8D3114C606820F4700060606068DF
:1011F00040F400006060322000F05AFCC6F88871AC
:10120000322000F055FCD6F8340100B10120C6F8B8
:101210008881616821F470016160616841F4401166
:101220006160BDE8F0810000000024420020014020
:1012300070B50D4606460024FFF788FF4220FFF7F1
:10124000B3FF00B10124642000F032FC3046FFF708
:10125000ABFF00B10124642000F02AFC2846FFF710
:10126000A3FF00B10124FFF787FF204670BD704740
:1012700070B51C4E04464021304600F0FCF90028B1
:10128000F9D04FF47A7094FBF0F100FB1140642523
:1012900090FBF5F0303081B2304600F085FA402105
:1012A000304600F0E8F90028F9D094FBF5F005FB92
:1012B00010400A2590FBF5F0303081B2304600F046
:1012C00073FA4021304600F0D6F90028F9D094FB9B
:1012D000F5F005FB1040303081B23046BDE870407B
:1012E00000F062BA004400400CB50022264800928B
:1012F0000192016841F4803101604FF4A0630168FC
:1013000001F4003101910099491C0091019911B932
:1013100000999942F3D10168890333D501210191E4
:101320001A490A6842F010020A600A6822F00302B1
:101330000A600A6842F002020A604168416041683E
:101340004160416841F480614160416821F47C1151
:101350004160416841F4E8114160016841F08071E9
:10136000016001688901FCD5416821F003014160F9
:10137000416841F0020141604168C1F381010229E5
:10138000FAD10CBD01920CBD0010024000200240B9
:101390004FF0E0210428086903D020F00400086120
:1013A000704740F00400FAE7704700000F4810B59E
:1013B000016841F00101016041680D4A114041603E
:1013C00001680C4A11400160016821F4802101602C
:1013D000416821F4FE0141604FF41F018160FFF775
:1013E00083FF05494FF00060086010BD0010024007
:1013F0000000FFF8FFFFF6FE08ED00E01FB5012139
:101400000846FFF797FD4FF4E150ADF8040042F2B3
:101410001070ADF800000020ADF80600ADF8020035
:101420004FF080446946204600F042F801212046F2
:1014300000F028F801221146204600F030F8012182
:10144000204600F022F81C208DF80C0001208DF8B9
:101450000D008DF80E008DF80F0003A8FFF7BCFB00
:101460001FBD000010B50121880700F00BF80348EC
:10147000034A017811700021017010BD00000020A6
:1014800001000020C943018270470029018802D071
:1014900041F0010101E021F0010101807047002AC3
:1014A000828901D00A4300E08A43828170470000AC
:1014B00030B502881B4C1C4DA0420DD0A8420BD069
:1014C000B0F1804F08D0194B984205D0184B984284
:1014D00002D0184B984203D122F070034A881A4375
:1014E000154B984206D0154B984203D022F4407316
:1014F000CA881A4302808A8882850A880285A042A7
:101500000AD0A84208D00E4A904205D00D4A904217
:1015100002D00D4A904201D1097A018601218182CF
:1015200030BD0000002C01400034014000040040A8
:1015300000080040000C0040001000400014004073
:1015400000400140004401400048014070B504469D
:10155000012186B04804FFF7EDFC01210420FFF7CC
:10156000F5FC0425ADF8105003208DF8120018206A
:101570001F4E8DF8130004A93046FEF773FF0820B4
:10158000ADF810008DF8135004A93046FEF76AFF3D
:101590000020ADF804000094ADF80600ADF8080096
:1015A000ADF80C000C20134CADF80A004021204689
:1015B00000F054F86946204600F09CF8012240F201
:1015C0002551204600F07DF826208DF814000121D9
:1015D0008DF815108DF816108DF8171005A8FFF767
:1015E000FBFA0121204600F03CF806B070BD000077
:1015F000000801400044004070B5154C40F22551F0
:10160000204600F03FF800280ED0204600F0C8F831
:10161000104AC1B21088030406D444044FF00003FA
:1016200006D50A2901D0138070BD40F400400DE0BA
:101630000D2909D0C0F30D04074D401C80B2295577
:101640001080C728EFD870BD40F48040108070BD76
:10165000004400401E0000204A000020C9430180D1
:1016600070470029818902D041F4005101E021F442
:101670000051818170470246002012880A4200D042
:101680000120704770B501F01F0501260024C1F349
:10169000421306FA05F2012B0FD0022B0FD0838ADA
:1016A0004FEA11210088134206FA01F600EA06000B
:1016B00001D000B10124204670BD8389F0E7038A80
:1016C000EEE710B5C1F3421301F01F040121A14060
:1016D000012B07D0022B07D01430002A026805D056
:1016E0000A4304E00C30F8E71030F6E78A43026062
:1016F00010BD000030B50446008A85B00D464CF69A
:10170000FF710840E98801432182A0894EF6F31158
:101710000840A9882A8911436A8902431143A1819B
:10172000A08A4FF6FF410840A9890143A18268467B
:10173000FFF718FC1948844201D1039800E0029891
:10174000A189090400EBC00101EB0010296801D553
:10175000490000E08900B0FBF1F06422B0FBF2F137
:1017600009010B096FF018056B4300EB8300A38997
:101770001D044FF0320306D503EBC000B0FBF2F0BE
:1017800000F0070005E003EB0010B0FBF2F000F002
:101790000F000843208105B030BD00000038014033
:1017A0008088C0F308007047C1F30801818070474A
:1017B000FEE770472DE9F84F97480024254600784A
:1017C000234600287ED0954F3878401C38709448C6
:1017D0000021C0F8B811DFF84CC21022CCF800206C
:1017E000ACF104063260CCF800200121C0F8B81139
:1017F000326038460021B0F802B0E6463746002095
:101800004FF4A07A01E0F02829D2F146CEF800206A
:10181000DFF81482D8F800603A60CEF80020D8F8DB
:1018200000C03A60CCF3042CDC4502D905440B44DB
:10183000641C4E46DFF8F491401C80B25045E2D360
:10184000491C89B2F029DAD37349002008707CB1B1
:1018500095FBF4F006B293FBF4F007B20AE03260B5
:10186000D9F800803A603260D9F800C03A60E3E706
:10187000002637464FF00A0894FBF8F108FB1140A8
:10188000C2B20C250523F02100200095FFF72AF9AC
:101890004FF0640994FBF9F109FB114191FBF8F059
:1018A000C2B20423F02100200095FFF71BF94FF48A
:1018B0007A7A94FBFAF10AFB114191FBF9F0C2B27A
:1018C000032300E0A6E0F02100200095FFF70AF9CD
:1018D00042F2107B94FBFBF10BFB114191FBFAF000
:1018E000C2B20223F02100200095FFF7FBF8504818
:1018F000012394FBF0F100FB114191FBFBF0C2B21C
:10190000F02100200095FFF7EDF896FBF8F108FBB9
:101910001160C2B24FF48774032321460020009562
:10192000FFF7E0F896FBF9F109FB116191FBF8F084
:10193000C2B20223214600200095FFF7D3F896FBA0
:10194000FAF10AFB116191FBF9F0C2B201232146C1
:1019500000200095FFF7C6F897FBF8F108FB11701F
:10196000C2B24FF4967B0323594600200095FFF73F
:10197000B9F897FBF9F109FB117191FBF8F0C2B2CC
:101980000223594600200095FFF7ACF897FBFAF1C7
:101990000AFB117191FBF9F0C2B2012359460020F4
:1019A0000095FFF79FF81D4C03233C2061780095BC
:1019B000B1FBF8F208FB12125946FFF793F8617871
:1019C0000223B1FBF9F209FB1211B1FBF8F25946FF
:1019D0003C200095FFF786F861780123B1FBFAF20D
:1019E0000AFB1211B1FBF9F259463C200095FFF7B2
:1019F00079F810A0FEF70AFC3046FFF739FC0EA07C
:101A0000FEF704FC3846FFF733FCBDE8F84F0BA0A7
:101A1000FEF7FCBBBDE8F88F180000200000002096
:101A200000002442140C014008180140080801403D
:101A3000A0860100783D0000793D00000D0A0000FD
:101A400010B56FF00400FFF7A3FC094809490068CE
:101A5000B0FBF1F00849C0B200EB40020870C2EBE5
:101A6000C0104FF6FF7202EAC000488010BD0000AF
:101A70000400002000127A00240000200B4949884D
:101A800048434FF0E021486100238B61086940F032
:101A9000010008610869C20701D0C003FAD50869CE
:101AA00020F0010008618B617047000024000020D5
:101AB0000B49097848434FF0E021486100238B61CE
:101AC000086940F0010008610869C20701D0C0033D
:101AD000FAD5086920F0010008618B6170470000A9
:101AE0002400002004490A885206FCD5024AC1B2EB
:101AF000121D1180704700000044004002274FF083
:101B000000083E463D464446FFF79AFF4FF4A0606A
:101B1000FFF794F8FEF700FCFFF770FCFFF7F8F80A
:101B2000FEF7B6FD4FF41650FFF710FD4046FFF7E5
:101B300075F93846FFF79FF83046FFF789F82846D1
:101B4000FFF7D2F82046FFF792F94FF4A073F02286
:101B5000B0210C20FFF7B5F904490020C1F8BC0101
:101B60006420FFF78BFFFFF725FEFCE7000024420F
:101B70000346012000E05843491EC9B2FBD270471A
:101B80003A0440D0121432801716180419021A7B36
:101B900003060C0015003E00703A71357211730097
:101BA000A20211817A207B1C7C287D3C7E557F68B7
:101BB000807681808288838F849685A386AF87C450
:101BC00088D789E813E0000010000D001428A5054F
:101BD000AB072475256326A59F78A068A103A6DF1F
:101BE000A7DFA8F0A990AA9413E50E610F4B160287
:101BF0001E27210222912907330B350B371D38711F
:101C0000392A3C784D404E2069006B4074198D4F45
:101C10008E008F0090009100920096009A80B08410
:101C2000B10CB20EB382B80A431444F0453446589E
:101C30004728483A59885A885B445C675D495E0E7C
:101C4000640465206605940495086C0A6D554F8000
:101C5000508051005222535E548009036E116F9FD1
:101C60005500564057406A400140024013E71500B6
:101C7000589E41083F00750576E14C0077013DC252
:101C80004B09C960413834113B02A4899600973052
:101C9000982099309A849B299C039D4C9E3F780400
:101CA0007901C8F0790FC8007910C87E790AC88018
:101CB000790BC801790CC80F790DC8207909C88043
:101CC0007902C8C07903C8407905C830792609006F
:101CD00000000000000000000000000000000404FC
:101CE000040404040004000000140A0A00000000B8
:101CF00000000000000014143F140A3F0A0A00000C
:101D000000041E1505060C14150F04000000121522
:101D10000D0A142C2A1200000000040A0A1E1515D0
:101D2000093600000002020100000000000000006F
:101D30000020100808080808081020000002040805
:101D4000080808080804020000000004150E0E151B
:101D50000400000000000404041F04040400000048
:101D6000000000000000000000020201000000006E
:101D7000001F000000000000000000000000000044
:101D8000000200000010080808040402020201001A
:101D900000000E1111111111110E000000000406B7
:101DA00004040404040E000000000E1111080402D3
:101DB000011F000000000E11100C1010110E000089
:101DC0000000080C0A0A091E0818000000001F0184
:101DD000010F1010110E000000000E09010F11116B
:101DE000110E000000001F09080404040404000090
:101DF00000000E11110E1111110E000000000E1145
:101E000011111E10120E000000000000040000005E
:101E100000040000000000000004000000040400B2
:101E20000020100804020408102000000000000038
:101E30001F00001F0000000000020408102010080E
:101E40000402000000000E11110804040004000048
:101E500000000E111915151D011E000000000404DC
:101E60000C0A0A1E1233000000000F12120E12128A
:101E7000120F000000001E1101010101110E0000EF
:101E800000000F1212121212120F000000001F1297
:101E90000A0E0A02121F000000001F120A0E0A0298
:101EA0000207000000001C1201013911120C000091
:101EB00000003312121E12121233000000001F0421
:101EC00004040404041F000000003E080808080879
:101ED00008090700000037120A060A0A1237000034
:101EE0000000070202020202223F000000001B1B4A
:101EF0001B1B15151515000000003B1216161A1AAB
:101F00001217000000000E1111111111110E000026
:101F100000000F12120E02020207000000000E1154
:101F200011111117190E180000000F12120E0A12CB
:101F30001237000000001E1101060810110F0000EA
:101F400000001F1504040404040E000000003312F6
:101F500012121212120C000000003312120A0A0CA4
:101F60000404000000001515150E0A0A0A0A0000F4
:101F700000001B0A0A04040A0A1B000000001B0AD6
:101F80000A040404040E000000001F0908040402EF
:101F9000121F0000001C04040404040404041C00B8
:101FA000000202020404080808100000000E0808DD
:101FB0000808080808080E0000040A0000000000D5
:101FC0000000000000000000000000000000003FD2
:101FD00000040000000000000000000000000000FD
:101FE000000C121C123C000000000302020E121230
:101FF000120E000000000000001C1202021C000073
:1020000000001810101C1212123C0000000000000A
:10201000000C121E021C000000003804041E040400
:10202000041E000000000000003C120C021E221CD6
:1020300000000302020E121212370000000004001A
:1020400000060404040E000000000800000C08084C
:102050000808080700000302023A0A0E12370000BF
:102060000000070404040404041F00000000000032
:10207000000F15151515000000000000000F1212CA
:102080001237000000000000000C1212120C0000B9
:1020900000000000000F1212120E020700000000E4
:1020A000001C1212121C103800000000001B060257
:1020B0000207000000000000001E020C101E0000BD
:1020C00000000004040E04040418000000000000D6
:1020D000001B1212123C0000000000000037120A20
:1020E0000C040000000000000015150E0A0A000094
:1020F00000000000001B0A040A1B00000000000092
:102100000037120A0C04040300000000001E08043B
:10211000041E000000180808080408080808180031
:102120000808080808080808080808080006040441
:10213000040804040404060002251800000000003E
:10214000000000000000000000000000000000008F
:102150000000000000000008080808080808000047
:102160001818000000486C24120000000000000055
:10217000000000000000002424247F1212127F12AD
:10218000121200000000081C2A2A0A0C1828282A0B
:102190002A1C080800000022251515152A58545439
:1021A000542200000000000C1212120A7625291198
:1021B000916E00000006060403000000000000000D
:1021C000000000000040201010080808080808104F
:1021D0001020400000020408081010101010100811
:1021E000080402000000000008086B1C1C6B0808B3
:1021F0000000000000000000080808087F08080828
:1022000008000000000000000000000000000000C6
:10221000060604030000000000000000FE000000AD
:1022200000000000000000000000000000000000AE
:10223000060600000000804040202010100808041E
:10224000040202000000001824424242424242427C
:1022500024180000000000080E08080808080808F4
:10226000083E00000000003C4242422020100804CA
:10227000427E00000000003C4242201820404042C4
:10228000221C0000000000203028242422227E206E
:10229000207800000000007E0202021A2640404220
:1022A000221C0000000000382402021A264242428A
:1022B000241800000000007E2222101008080808E0
:1022C000080800000000003C424242241824424218
:1022D000423C000000000018244242426458404042
:1022E000241C00000000000000001818000000007E
:1022F00018180000000000000000000800000000A6
:10230000000808040000004020100804020408101F
:10231000204000000000000000007F0000007F005F
:1023200000000000000000020408102040201008F7
:10233000040200000000003C424246402010100011
:10234000181800000000001C225A555555552D4202
:10235000221C00000000000808181414243C22422B
:1023600042E700000000001F2222221E22424242B9
:10237000221F00000000007C4242010101010142D5
:10238000221C00000000001F224242424242424200
:10239000221F00000000003F4212121E12120242D1
:1023A000423F00000000003F4212121E12120202C1
:1023B000020700000000003C2222010101712122DD
:1023C000221C0000000000E7424242427E4242429C
:1023D00042E700000000003E080808080808080856
:1023E000083E00000000007C1010101010101010AB
:1023F0001010110F0000007722120A0E0A1212228A
:10240000227700000000000702020202020202021C
:10241000427F000000000077363636362A2A2A2A04
:102420002A6B0000000000E346464A4A52525262BC
:10243000624700000000001C2241414141414141EE
:10244000221C00000000003F424242423E020202C3
:10245000020700000000001C2241414141414D5350
:10246000321C60000000003F4242423E1212222213
:1024700042C700000000007C424202041820404293
:10248000423E00000000007F4908080808080808CC
:10249000081C0000000000E7424242424242424221
:1024A000423C0000000000E7424222242414141899
:1024B000080800000000006B49494949555536227B
:1024C00022220000000000E74224241818182424C7
:1024D00042E70000000000772222141408080808D0
:1024E000081C00000000007E212010100804044297
:1024F000423F000000780808080808080808080893
:1025000008087800000002020404080808101020DF
:1025100020204040001E101010101010101010103D
:1025200010101E00003844000000000000000000F1
:10253000000000000000000000000000000000009B
:10254000000000FF0006080000000000000000007E
:1025500000000000000000000000003C42784442FF
:1025600042FC0000000000030202021A264242421E
:10257000261A000000000000000000384402020299
:10258000443800000000006040404078444242422D
:1025900064D80000000000000000003C427E0202FF
:1025A000423C0000000000F08808087E0808080887
:1025B000083E0000000000000000007C22221C02F7
:1025C0003C42423C000000030202023A46424242C0
:1025D00042E700000000000C0C00000E080808088C
:1025E000083E00000000003030000038202020208D
:1025F0002020221E0000000302020272120A16129C
:10260000227700000000000E0808080808080808E3
:10261000083E0000000000000000007F92929292AD
:1026200092B70000000000000000003B464242421A
:1026300042E70000000000000000003C424242422D
:10264000423C0000000000000000001B2642424205
:10265000221E0207000000000000007844424242AF
:10266000447840E000000000000000774C040404BF
:10267000041F0000000000000000007C42023C40FB
:10268000423E0000000000000008083E080808085C
:102690000830000000000000000000634242424297
:1026A00062DC000000000000000000E74224241467
:1026B0000808000000000000000000EB49495555E3
:1026C00022220000000000000000007624181818E4
:1026D000246E000000000000000000E742242414E3
:1026E00018080807000000000000007E22100808FB
:1026F000447E000000C02020202020102020202028
:102700002020C00010101010101010101010101009
:10271000101010100006080808080810080808081B
:10272000080806000C32C200000000000000000093
:1027300000000000C9EE000027FC140414A481105E
:1027400042084040104017FC2040E0E02150224861
:102750002C4620400040DBDA1104112411241124FE
:102760001124FD24112411241124112411241D24C9
:10277000E124422402040404CAD002000100000043
:102780007FFC0100010001003FF821082108210819
:1027900021082128211001000100C8AB0000000021
:1027A000018002400430180860061FF90100010092
:1027B00001003FF80100010001007FFEB6AF0000FC
:1027C000000000203E20007C002200227F221022F8
:1027D000102212221222224223423D82009CB5E79F
:1027E0000000010001001FF0610C410441047FFC66
:1027F0004104410441047FFC01000102010201FC8B
:10280000D7D3000000003FF80010006000800100F6
:1028100000807FFE00400040002000200020184083
:102820000780BCBC10201020102013FEFC201020BC
:10283000102015FC18843088D048105010201050FB
:1028400051882606CAF501000120011001107FFC05
:102850000380054005400920111021084104810230
:10286000010001000100D3D002000200FFFE0400BD
:1028700004000FF0081018102FF0481088100FF007
:102880000810081008500820CFDE00007BF84A0826
:10289000520853F8620852084BF84A444A486A30D2
:1028A00052204210428843064200B9AB00800480A7
:1028B00004800840084010202010420882060400CE
:1028C0000440082010203FF010100000CBBE000094
:1028D0003FF8000800087FE8000800081F881088FB
:1028E0001088108810881F88108800280010BBB638
:1028F00000800080FC8004FC050449082A40144044
:10290000104028A024A045108110020804040802E9
:10291000D3AD00002080133C122402240224F224B0
:102920001224122412B4132812201020282047FE4B
:102930000000C4FA0900090011FC320454489950FF
:1029400011481244144411401080020051045112E5
:1029500090120FF0B4BF00000020102013FE2020C2
:1029600026244A247A241224222423FC7C200022B8
:1029700004227822003CC9AB0000000004000FF0E4
:10298000102020207FFC20842084208420843FF895
:102990002000200220021FFECCEE0000000020409C
:1029A00023FE204079FC220423FC220423FC220481
:1029B00023FC3A0465FA01980204B3E40000010024
:1029C00001007FFE02200410040808043FFC0442BA
:1029D00004400440044208421042607EBED8000019
:1029E0000000207E3E804880488048FE48827F82EA
:1029F00008820C8214FA12842280218040FED0CEFC
:102A0000000000007F842208223022C0220222041B
:102A10007FC8223022C222022204220822304040F3
:102A2000BBAD000000007FFE00000FF01110111080
:102A3000111051125FF25112511251124FF2400215
:102A40007FFCD4B2000000007FFE47E2481248122B
:102A500047E24FF2501250125112511242924472F8
:102A6000580A3FFCCDBC000000003FFE440247F284
:102A70004C225362408243625E1A418240624302AA
:102A800040C240223FFCC6AC000000402040204035
:102A900020403FFE2000200020003FE020102010BA
:102AA0002010201040104010CFD4000000003FFC48
:102AB000200420043FFC200420041FF82444144870
:102AC000144814480C5004407FFECABE00000000A9
:102AD0003FFC0000000000007FFE00800890088896
:102AE000108810842084208240820780B2CB0000AE
:102AF000002008207FFE002000783F881108089001
:102B000009207FFE018003400D30310C4002B5A545
:102B100000000010081004203FF8210421043FFCAD
:102B2000210421043FF801007FFE010001000100A3
:102B3000D6D000000100010001003FFC2104210467
:102B400021042104210421043FFC010001000100B3
:102B50000100D3A20000000008207FFE0820092009
:102B600001003FF82108210821081FF4014002203C
:102B70000C10700ECEC400000100010000803F7CEC
:102B80000810081004100420022002400180018077
:102B900002601C18E006D7DB00000000102011FEC8
:102BA0002202220249FC5800300013FE2528792415
:102BB00001240D24722202A2BACF0000000001807D
:102BC00002400430180860061FF800001FF82004B7
:102BD00020042004200420041FF8C1C100000100CB
:102BE00001007FFE00003FF820083FF83FF8400654
:102BF00047C24824082008221022603EB6C80000C0
:102C0000000000803FFE44105FFC4410441043F07D
:102C100040005FF84408423041C04360BC1EB2E24D
:102C20000000000067C2145205520552C5522552D9
:102C30000552055215521752228222424442483E02
:102C4000CAD4000000002014101417FE0012001057
:102C5000601013F0109010901090149214EA1F0A54
:102C60000006B3CC0000000019FE7202120212022C
:102C70007DFC18001BFE3420502053FE1020102035
:102C8000102013FED0F20000000000803FFE400044
:102C900047FC4208413040C05FFE40424042404451
:102CA000404840404440B5F70000000023FE122297
:102CB00002FA0222E22212FE1272128A128A128A88
:102CC00016BA1A421202040EB9E200000100010411
:102CD00011080908091009207FFE0440044004403F
:102CE0000440084208421042607CB0E60000000048
:102CF00048FE4900490049007EFE41824144794432
:102D0000452845284510452846440382C8A80000A8
:102D10001000100013FC7D04110419041884348879
:102D20005048505010201050108813041402CBF952
:102D3000000000003F7C204020403E40227E224494
:102D4000224422443E84208420844084410442045E
:102D5000C9EE0000000000001000000800080C7F11
:102D6000FC04401001C8A002186042301832231839
:102D700012C30014030004030C047FF0080F800842
:102D80000B4078136018332018631818831C19033C
:102D900008180300000300000000DBDA0000000058
:102DA000000004100C04180C04108C04108C041087
:102DB0008C04108C04D08C3F108C04108C04108C6C
:102DC00004108C04108C04108C04108C05F08C0EF4
:102DD000208C78208C20408C00808C01000C02001C
:102DE0000C000000CAD0000000000000003000000D
:102DF000180000180800001C1FFFE0001800001851
:102E00002007FFF0041820041820041820041820BC
:102E10000418200418200418200418200418200482
:102E200018E0041840001800001800000000D6D078
:102E3000000000000000000000000000001800007A
:102E400018000018000018003FFFFE301806301868
:102E5000063018063018063018063FFFFE301806F8
:102E600000180000180000180000180000180000EA
:102E70000000000000000000CEC4000000000000C0
:102E8000000000003800001C00000600FFFFFF06E5
:102E900000300600300300600300600180C000C104
:102EA0008000E300003600001C0000770003C1E052
:102EB0001E003C6000070000000000000000000051
:102EC0000000B2E20000000000000000000000006E
:102ED00040000321FF33398333118333019B33C116
:102EE0009B33719B33199B33019B33019B33119BA4
:102EF0003319B333303033306C0330C6036383038C
:102F00002E01BE000000000000000000CAD4000036
:102F1000000000000000000000004000D83000CE9B
:102F20001800C21C00C001FFFF0000C0F800C0185C
:102F300000C019FFC01818401818601918601B1835
:102F4000611E18311C1FB139F01910000F0000006C
:102F5000000000000000D7D60000000000060000BE
:102F6000000300000000C0000001C0C0000107C055
:102F70000001FF00021FFE0007F01C0007C07000E8
:102F80000F00E0000E03F0001C0FF0003C0F70007B
:102F90003C00E0001800C0000000C0000000C000BD
:102FA0000000600000002000000037000001FF006A
:102FB000007FF80007F830001F80300000803000EC
:102FC00000C03000006060000018E000000FC0008A
:102FD0000006000000000000CCE50000000000003A
:102FE0000000000000C0000000E0002001B80070F8
:102FF0003FF80061FFC000C3030001C60600038C58
:10300000060003080C0006080C000E18183F1E10DE
:103010001BF31F903F0700803C1C0190707C0190C7
:1030200060FE01A0C3F801A00FD803A00818036038
:1030300000180340001803C00018038000180300A4
:103040000018000000180000001000000030000010
:1030500000300000000000000000B2E200000000AC
:10306000000000000000000000000000020C10083A
:10307000071FF80403BFF00201BC300303EC300368
:10308000015C600300D8600300D86003809862038D
:1030900061B8430771B14306313243063376C30644
:1030A0003A64C7063EECC0063E78C0063C30400697
:1030B0007C70000678E060067BFFF006F7C0000633
:1030C000E400000640000006000000060000007C4E
:1030D00000008FF000007C0000000000CAD4000057
:1030E0000000000000000000000000003F000000A1
:1030F0007F8000000180000000C0000000C00000D0
:1031000000CE038000CFFFC000DD41800FFE00072E
:10311000FFFC000C00F000180FC03E19FF40F31137
:10312000BC6083307FE003B1FE2003338020037056
:103130000030036000100360001807C0000C07C0D7
:1031400000040780000201000003000000010000ED
:10315000000000000000000000000000000000006F
:1031600080310008000000203C0000006C010008D5
:10317000BC3100083C0000203C050000880100082C
:103180000000190000A24A04000000000000000036
:10319000010203040607080900000000FFFF000009
:1031A000000000000000000002040608000000000B
:0C31B000010203040102030406070809E1
:0400000508000131BD
:00000001FF
